{"abi":[{"type":"constructor","inputs":[{"name":"name","type":"string","internalType":"string"},{"name":"symbol","type":"string","internalType":"string"},{"name":"merkleroot","type":"bytes32","internalType":"bytes32"}],"stateMutability":"nonpayable"},{"type":"function","name":"approve","inputs":[{"name":"to","type":"address","internalType":"address"},{"name":"tokenId","type":"uint256","internalType":"uint256"}],"outputs":[],"stateMutability":"nonpayable"},{"type":"function","name":"balanceOf","inputs":[{"name":"owner","type":"address","internalType":"address"}],"outputs":[{"name":"","type":"uint256","internalType":"uint256"}],"stateMutability":"view"},{"type":"function","name":"getApproved","inputs":[{"name":"tokenId","type":"uint256","internalType":"uint256"}],"outputs":[{"name":"","type":"address","internalType":"address"}],"stateMutability":"view"},{"type":"function","name":"isApprovedForAll","inputs":[{"name":"owner","type":"address","internalType":"address"},{"name":"operator","type":"address","internalType":"address"}],"outputs":[{"name":"","type":"bool","internalType":"bool"}],"stateMutability":"view"},{"type":"function","name":"mint","inputs":[{"name":"account","type":"address","internalType":"address"},{"name":"tokenId","type":"uint256","internalType":"uint256"},{"name":"proof","type":"bytes32[]","internalType":"bytes32[]"}],"outputs":[],"stateMutability":"nonpayable"},{"type":"function","name":"mintedAddress","inputs":[{"name":"","type":"address","internalType":"address"}],"outputs":[{"name":"","type":"bool","internalType":"bool"}],"stateMutability":"view"},{"type":"function","name":"name","inputs":[],"outputs":[{"name":"","type":"string","internalType":"string"}],"stateMutability":"view"},{"type":"function","name":"ownerOf","inputs":[{"name":"tokenId","type":"uint256","internalType":"uint256"}],"outputs":[{"name":"","type":"address","internalType":"address"}],"stateMutability":"view"},{"type":"function","name":"root","inputs":[],"outputs":[{"name":"","type":"bytes32","internalType":"bytes32"}],"stateMutability":"view"},{"type":"function","name":"safeTransferFrom","inputs":[{"name":"from","type":"address","internalType":"address"},{"name":"to","type":"address","internalType":"address"},{"name":"tokenId","type":"uint256","internalType":"uint256"}],"outputs":[],"stateMutability":"nonpayable"},{"type":"function","name":"safeTransferFrom","inputs":[{"name":"from","type":"address","internalType":"address"},{"name":"to","type":"address","internalType":"address"},{"name":"tokenId","type":"uint256","internalType":"uint256"},{"name":"data","type":"bytes","internalType":"bytes"}],"outputs":[],"stateMutability":"nonpayable"},{"type":"function","name":"setApprovalForAll","inputs":[{"name":"operator","type":"address","internalType":"address"},{"name":"approved","type":"bool","internalType":"bool"}],"outputs":[],"stateMutability":"nonpayable"},{"type":"function","name":"supportsInterface","inputs":[{"name":"interfaceId","type":"bytes4","internalType":"bytes4"}],"outputs":[{"name":"","type":"bool","internalType":"bool"}],"stateMutability":"view"},{"type":"function","name":"symbol","inputs":[],"outputs":[{"name":"","type":"string","internalType":"string"}],"stateMutability":"view"},{"type":"function","name":"tokenURI","inputs":[{"name":"tokenId","type":"uint256","internalType":"uint256"}],"outputs":[{"name":"","type":"string","internalType":"string"}],"stateMutability":"view"},{"type":"function","name":"transferFrom","inputs":[{"name":"from","type":"address","internalType":"address"},{"name":"to","type":"address","internalType":"address"},{"name":"tokenId","type":"uint256","internalType":"uint256"}],"outputs":[],"stateMutability":"nonpayable"},{"type":"event","name":"Approval","inputs":[{"name":"owner","type":"address","indexed":true,"internalType":"address"},{"name":"approved","type":"address","indexed":true,"internalType":"address"},{"name":"tokenId","type":"uint256","indexed":true,"internalType":"uint256"}],"anonymous":false},{"type":"event","name":"ApprovalForAll","inputs":[{"name":"owner","type":"address","indexed":true,"internalType":"address"},{"name":"operator","type":"address","indexed":true,"internalType":"address"},{"name":"approved","type":"bool","indexed":false,"internalType":"bool"}],"anonymous":false},{"type":"event","name":"Transfer","inputs":[{"name":"from","type":"address","indexed":true,"internalType":"address"},{"name":"to","type":"address","indexed":true,"internalType":"address"},{"name":"tokenId","type":"uint256","indexed":true,"internalType":"uint256"}],"anonymous":false},{"type":"error","name":"ERC721IncorrectOwner","inputs":[{"name":"sender","type":"address","internalType":"address"},{"name":"tokenId","type":"uint256","internalType":"uint256"},{"name":"owner","type":"address","internalType":"address"}]},{"type":"error","name":"ERC721InsufficientApproval","inputs":[{"name":"operator","type":"address","internalType":"address"},{"name":"tokenId","type":"uint256","internalType":"uint256"}]},{"type":"error","name":"ERC721InvalidApprover","inputs":[{"name":"approver","type":"address","internalType":"address"}]},{"type":"error","name":"ERC721InvalidOperator","inputs":[{"name":"operator","type":"address","internalType":"address"}]},{"type":"error","name":"ERC721InvalidOwner","inputs":[{"name":"owner","type":"address","internalType":"address"}]},{"type":"error","name":"ERC721InvalidReceiver","inputs":[{"name":"receiver","type":"address","internalType":"address"}]},{"type":"error","name":"ERC721InvalidSender","inputs":[{"name":"sender","type":"address","internalType":"address"}]},{"type":"error","name":"ERC721NonexistentToken","inputs":[{"name":"tokenId","type":"uint256","internalType":"uint256"}]}],"bytecode":{"object":"0x60a060405234801561001057600080fd5b5060405161156138038061156183398101604081905261002f91610111565b8282600061003d838261020c565b50600161004a828261020c565b505050608052506102ca9050565b634e487b7160e01b600052604160045260246000fd5b600082601f83011261007f57600080fd5b81516001600160401b0381111561009857610098610058565b604051601f8201601f19908116603f011681016001600160401b03811182821017156100c6576100c6610058565b6040528181528382016020018510156100de57600080fd5b60005b828110156100fd576020818601810151838301820152016100e1565b506000918101602001919091529392505050565b60008060006060848603121561012657600080fd5b83516001600160401b0381111561013c57600080fd5b6101488682870161006e565b602086015190945090506001600160401b0381111561016657600080fd5b6101728682870161006e565b925050604084015190509250925092565b600181811c9082168061019757607f821691505b6020821081036101b757634e487b7160e01b600052602260045260246000fd5b50919050565b601f82111561020757806000526020600020601f840160051c810160208510156101e45750805b601f840160051c820191505b8181101561020457600081556001016101f0565b50505b505050565b81516001600160401b0381111561022557610225610058565b610239816102338454610183565b846101bd565b6020601f82116001811461026d57600083156102555750848201515b600019600385901b1c1916600184901b178455610204565b600084815260208120601f198516915b8281101561029d578785015182556020948501946001909201910161027d565b50848210156102bb5786840151600019600387901b60f8161c191681555b50505050600190811b01905550565b6080516112756102ec6000396000818161026b015261080b01526112756000f3fe608060405234801561001057600080fd5b50600436106101005760003560e01c8063641ce14011610097578063b88d4fde11610066578063b88d4fde1461022d578063c87b56dd14610240578063e985e9c514610253578063ebf0c7171461026657600080fd5b8063641ce140146101de57806370a08231146101f157806395d89b4114610212578063a22cb4651461021a57600080fd5b806323b872dd116100d357806323b872dd1461018257806342842e0e14610195578063630303c6146101a85780636352211e146101cb57600080fd5b806301ffc9a71461010557806306fdde031461012d578063081812fc14610142578063095ea7b31461016d575b600080fd5b610118610113366004610e39565b61028d565b60405190151581526020015b60405180910390f35b6101356102df565b6040516101249190610ea6565b610155610150366004610eb9565b610371565b6040516001600160a01b039091168152602001610124565b61018061017b366004610eee565b61039a565b005b610180610190366004610f18565b6103a9565b6101806101a3366004610f18565b610439565b6101186101b6366004610f55565b60066020526000908152604090205460ff1681565b6101556101d9366004610eb9565b610459565b6101806101ec366004610f70565b610464565b6102046101ff366004610f55565b6105a8565b604051908152602001610124565b6101356105f0565b610180610228366004610ffd565b6105ff565b61018061023b36600461104f565b61060a565b61013561024e366004610eb9565b610621565b610118610261366004611133565b610696565b6102047f000000000000000000000000000000000000000000000000000000000000000081565b60006001600160e01b031982166380ac58cd60e01b14806102be57506001600160e01b03198216635b5e139f60e01b145b806102d957506301ffc9a760e01b6001600160e01b03198316145b92915050565b6060600080546102ee90611166565b80601f016020809104026020016040519081016040528092919081815260200182805461031a90611166565b80156103675780601f1061033c57610100808354040283529160200191610367565b820191906000526020600020905b81548152906001019060200180831161034a57829003601f168201915b5050505050905090565b600061037c826106c4565b506000828152600460205260409020546001600160a01b03166102d9565b6103a58282336106fd565b5050565b6001600160a01b0382166103d857604051633250574960e11b8152600060048201526024015b60405180910390fd5b60006103e583833361070a565b9050836001600160a01b0316816001600160a01b031614610433576040516364283d7b60e01b81526001600160a01b03808616600483015260248201849052821660448201526064016103cf565b50505050565b6104548383836040518060200160405280600081525061060a565b505050565b60006102d9826106c4565b60408051606086901b6bffffffffffffffffffffffff191660208083019190915282516014818403018152603490920190925280519101206104d99083838080602002602001604051908101604052809392919081815260200183836020028082843760009201919091525061080392505050565b61051c5760405162461bcd60e51b815260206004820152601460248201527324b73b30b634b21036b2b935b63290383937b7b360611b60448201526064016103cf565b6001600160a01b03841660009081526006602052604090205460ff16156105775760405162461bcd60e51b815260206004820152600f60248201526e416c7265616479206d696e7465642160881b60448201526064016103cf565b6105818484610830565b5050506001600160a01b03166000908152600660205260409020805460ff19166001179055565b60006001600160a01b0382166105d4576040516322718ad960e21b8152600060048201526024016103cf565b506001600160a01b031660009081526003602052604090205490565b6060600180546102ee90611166565b6103a5338383610895565b6106158484846103a9565b61043384848484610934565b606061062c826106c4565b50600061064460408051602081019091526000815290565b90506000815111610664576040518060200160405280600081525061068f565b8061066e84610a5d565b60405160200161067f9291906111a0565b6040516020818303038152906040525b9392505050565b6001600160a01b03918216600090815260056020908152604080832093909416825291909152205460ff1690565b6000818152600260205260408120546001600160a01b0316806102d957604051637e27328960e01b8152600481018490526024016103cf565b6104548383836001610af0565b6000828152600260205260408120546001600160a01b039081169083161561073757610737818486610bf6565b6001600160a01b0381161561077557610754600085600080610af0565b6001600160a01b038116600090815260036020526040902080546000190190555b6001600160a01b038516156107a4576001600160a01b0385166000908152600360205260409020805460010190555b60008481526002602052604080822080546001600160a01b0319166001600160a01b0389811691821790925591518793918516917fddf252ad1be2c89b69c2b068fc378daa952ba7f163c4a11628f55a4df523b3ef91a4949350505050565b600061068f827f000000000000000000000000000000000000000000000000000000000000000085610c5a565b6001600160a01b03821661085a57604051633250574960e11b8152600060048201526024016103cf565b60006108688383600061070a565b90506001600160a01b03811615610454576040516339e3563760e11b8152600060048201526024016103cf565b6001600160a01b0382166108c757604051630b61174360e31b81526001600160a01b03831660048201526024016103cf565b6001600160a01b03838116600081815260056020908152604080832094871680845294825291829020805460ff191686151590811790915591519182527f17307eab39ab6107e8899845ad3d59bd9653f200f220920489ca2b5937696c31910160405180910390a3505050565b6001600160a01b0383163b1561043357604051630a85bd0160e11b81526001600160a01b0384169063150b7a02906109769033908890879087906004016111cf565b6020604051808303816000875af19250505080156109b1575060408051601f3d908101601f191682019092526109ae9181019061120c565b60015b610a1a573d8080156109df576040519150601f19603f3d011682016040523d82523d6000602084013e6109e4565b606091505b508051600003610a1257604051633250574960e11b81526001600160a01b03851660048201526024016103cf565b805181602001fd5b6001600160e01b03198116630a85bd0160e11b14610a5657604051633250574960e11b81526001600160a01b03851660048201526024016103cf565b5050505050565b60606000610a6a83610c70565b600101905060008167ffffffffffffffff811115610a8a57610a8a611039565b6040519080825280601f01601f191660200182016040528015610ab4576020820181803683370190505b5090508181016020015b600019016f181899199a1a9b1b9c1cb0b131b232b360811b600a86061a8153600a8504945084610abe57509392505050565b8080610b0457506001600160a01b03821615155b15610bc6576000610b14846106c4565b90506001600160a01b03831615801590610b405750826001600160a01b0316816001600160a01b031614155b8015610b535750610b518184610696565b155b15610b7c5760405163a9fbf51f60e01b81526001600160a01b03841660048201526024016103cf565b8115610bc45783856001600160a01b0316826001600160a01b03167f8c5be1e5ebec7d5bd14f71427d1e84f3dd0314c0f7b2291e5b200ac8c7c3b92560405160405180910390a45b505b5050600090815260046020526040902080546001600160a01b0319166001600160a01b0392909216919091179055565b610c01838383610d48565b610454576001600160a01b038316610c2f57604051637e27328960e01b8152600481018290526024016103cf565b60405163177e802f60e01b81526001600160a01b0383166004820152602481018290526044016103cf565b600082610c678584610dae565b14949350505050565b60008072184f03e93ff9f4daa797ed6e38ed64bf6a1f0160401b8310610caf5772184f03e93ff9f4daa797ed6e38ed64bf6a1f0160401b830492506040015b6d04ee2d6d415b85acef81000000008310610cdb576d04ee2d6d415b85acef8100000000830492506020015b662386f26fc100008310610cf957662386f26fc10000830492506010015b6305f5e1008310610d11576305f5e100830492506008015b6127108310610d2557612710830492506004015b60648310610d37576064830492506002015b600a83106102d95760010192915050565b60006001600160a01b03831615801590610da65750826001600160a01b0316846001600160a01b03161480610d825750610d828484610696565b80610da657506000828152600460205260409020546001600160a01b038481169116145b949350505050565b600081815b8451811015610de957610ddf82868381518110610dd257610dd2611229565b6020026020010151610df1565b9150600101610db3565b509392505050565b6000818310610e0d57600082815260208490526040902061068f565b600083815260208390526040902061068f565b6001600160e01b031981168114610e3657600080fd5b50565b600060208284031215610e4b57600080fd5b813561068f81610e20565b60005b83811015610e71578181015183820152602001610e59565b50506000910152565b60008151808452610e92816020860160208601610e56565b601f01601f19169290920160200192915050565b60208152600061068f6020830184610e7a565b600060208284031215610ecb57600080fd5b5035919050565b80356001600160a01b0381168114610ee957600080fd5b919050565b60008060408385031215610f0157600080fd5b610f0a83610ed2565b946020939093013593505050565b600080600060608486031215610f2d57600080fd5b610f3684610ed2565b9250610f4460208501610ed2565b929592945050506040919091013590565b600060208284031215610f6757600080fd5b61068f82610ed2565b60008060008060608587031215610f8657600080fd5b610f8f85610ed2565b935060208501359250604085013567ffffffffffffffff811115610fb257600080fd5b8501601f81018713610fc357600080fd5b803567ffffffffffffffff811115610fda57600080fd5b8760208260051b8401011115610fef57600080fd5b949793965060200194505050565b6000806040838503121561101057600080fd5b61101983610ed2565b91506020830135801515811461102e57600080fd5b809150509250929050565b634e487b7160e01b600052604160045260246000fd5b6000806000806080858703121561106557600080fd5b61106e85610ed2565b935061107c60208601610ed2565b925060408501359150606085013567ffffffffffffffff81111561109f57600080fd5b8501601f810187136110b057600080fd5b803567ffffffffffffffff8111156110ca576110ca611039565b604051601f8201601f19908116603f0116810167ffffffffffffffff811182821017156110f9576110f9611039565b60405281815282820160200189101561111157600080fd5b8160208401602083013760006020838301015280935050505092959194509250565b6000806040838503121561114657600080fd5b61114f83610ed2565b915061115d60208401610ed2565b90509250929050565b600181811c9082168061117a57607f821691505b60208210810361119a57634e487b7160e01b600052602260045260246000fd5b50919050565b600083516111b2818460208801610e56565b8351908301906111c6818360208801610e56565b01949350505050565b6001600160a01b038581168252841660208201526040810183905260806060820181905260009061120290830184610e7a565b9695505050505050565b60006020828403121561121e57600080fd5b815161068f81610e20565b634e487b7160e01b600052603260045260246000fdfea2646970667358221220052c2bd604b97083ed6ec25e7d4c5ed98e3a1721acc677b7e6bc40ec02aa3f0664736f6c634300081a0033","linkReferences":{}},"methodIdentifiers":{"approve(address,uint256)":"095ea7b3","balanceOf(address)":"70a08231","getApproved(uint256)":"081812fc","isApprovedForAll(address,address)":"e985e9c5","mint(address,uint256,bytes32[])":"641ce140","mintedAddress(address)":"630303c6","name()":"06fdde03","ownerOf(uint256)":"6352211e","root()":"ebf0c717","safeTransferFrom(address,address,uint256)":"42842e0e","safeTransferFrom(address,address,uint256,bytes)":"b88d4fde","setApprovalForAll(address,bool)":"a22cb465","supportsInterface(bytes4)":"01ffc9a7","symbol()":"95d89b41","tokenURI(uint256)":"c87b56dd","transferFrom(address,address,uint256)":"23b872dd"},"id":35}